{
  "_format": "hh-sol-artifact-1",
  "contractName": "EventTicket",
  "sourceName": "contracts/EventTicket.sol",
  "abi": [
    {
      "inputs": [
        {
          "internalType": "string",
          "name": "_name",
          "type": "string"
        },
        {
          "internalType": "string",
          "name": "_symbol",
          "type": "string"
        },
        {
          "internalType": "string",
          "name": "_eventName",
          "type": "string"
        },
        {
          "internalType": "uint256",
          "name": "_eventDate",
          "type": "uint256"
        },
        {
          "internalType": "string",
          "name": "_eventLocation",
          "type": "string"
        },
        {
          "internalType": "uint256",
          "name": "_ticketPrice",
          "type": "uint256"
        },
        {
          "internalType": "uint256",
          "name": "_maxResalePrice",
          "type": "uint256"
        },
        {
          "internalType": "uint256",
          "name": "_royaltyPercentage",
          "type": "uint256"
        },
        {
          "internalType": "uint256",
          "name": "_totalTickets",
          "type": "uint256"
        }
      ],
      "stateMutability": "nonpayable",
      "type": "constructor"
    },
    {
      "inputs": [
        {
          "internalType": "address",
          "name": "sender",
          "type": "address"
        },
        {
          "internalType": "uint256",
          "name": "tokenId",
          "type": "uint256"
        },
        {
          "internalType": "address",
          "name": "owner",
          "type": "address"
        }
      ],
      "name": "ERC721IncorrectOwner",
      "type": "error"
    },
    {
      "inputs": [
        {
          "internalType": "address",
          "name": "operator",
          "type": "address"
        },
        {
          "internalType": "uint256",
          "name": "tokenId",
          "type": "uint256"
        }
      ],
      "name": "ERC721InsufficientApproval",
      "type": "error"
    },
    {
      "inputs": [
        {
          "internalType": "address",
          "name": "approver",
          "type": "address"
        }
      ],
      "name": "ERC721InvalidApprover",
      "type": "error"
    },
    {
      "inputs": [
        {
          "internalType": "address",
          "name": "operator",
          "type": "address"
        }
      ],
      "name": "ERC721InvalidOperator",
      "type": "error"
    },
    {
      "inputs": [
        {
          "internalType": "address",
          "name": "owner",
          "type": "address"
        }
      ],
      "name": "ERC721InvalidOwner",
      "type": "error"
    },
    {
      "inputs": [
        {
          "internalType": "address",
          "name": "receiver",
          "type": "address"
        }
      ],
      "name": "ERC721InvalidReceiver",
      "type": "error"
    },
    {
      "inputs": [
        {
          "internalType": "address",
          "name": "sender",
          "type": "address"
        }
      ],
      "name": "ERC721InvalidSender",
      "type": "error"
    },
    {
      "inputs": [
        {
          "internalType": "uint256",
          "name": "tokenId",
          "type": "uint256"
        }
      ],
      "name": "ERC721NonexistentToken",
      "type": "error"
    },
    {
      "inputs": [
        {
          "internalType": "address",
          "name": "owner",
          "type": "address"
        }
      ],
      "name": "OwnableInvalidOwner",
      "type": "error"
    },
    {
      "inputs": [
        {
          "internalType": "address",
          "name": "account",
          "type": "address"
        }
      ],
      "name": "OwnableUnauthorizedAccount",
      "type": "error"
    },
    {
      "anonymous": false,
      "inputs": [
        {
          "indexed": true,
          "internalType": "address",
          "name": "owner",
          "type": "address"
        },
        {
          "indexed": true,
          "internalType": "address",
          "name": "approved",
          "type": "address"
        },
        {
          "indexed": true,
          "internalType": "uint256",
          "name": "tokenId",
          "type": "uint256"
        }
      ],
      "name": "Approval",
      "type": "event"
    },
    {
      "anonymous": false,
      "inputs": [
        {
          "indexed": true,
          "internalType": "address",
          "name": "owner",
          "type": "address"
        },
        {
          "indexed": true,
          "internalType": "address",
          "name": "operator",
          "type": "address"
        },
        {
          "indexed": false,
          "internalType": "bool",
          "name": "approved",
          "type": "bool"
        }
      ],
      "name": "ApprovalForAll",
      "type": "event"
    },
    {
      "anonymous": false,
      "inputs": [
        {
          "indexed": false,
          "internalType": "uint256",
          "name": "_fromTokenId",
          "type": "uint256"
        },
        {
          "indexed": false,
          "internalType": "uint256",
          "name": "_toTokenId",
          "type": "uint256"
        }
      ],
      "name": "BatchMetadataUpdate",
      "type": "event"
    },
    {
      "anonymous": false,
      "inputs": [
        {
          "indexed": false,
          "internalType": "uint256",
          "name": "_tokenId",
          "type": "uint256"
        }
      ],
      "name": "MetadataUpdate",
      "type": "event"
    },
    {
      "anonymous": false,
      "inputs": [
        {
          "indexed": true,
          "internalType": "address",
          "name": "previousOwner",
          "type": "address"
        },
        {
          "indexed": true,
          "internalType": "address",
          "name": "newOwner",
          "type": "address"
        }
      ],
      "name": "OwnershipTransferred",
      "type": "event"
    },
    {
      "anonymous": false,
      "inputs": [
        {
          "indexed": true,
          "internalType": "address",
          "name": "buyer",
          "type": "address"
        },
        {
          "indexed": true,
          "internalType": "uint256",
          "name": "tokenId",
          "type": "uint256"
        }
      ],
      "name": "TicketMinted",
      "type": "event"
    },
    {
      "anonymous": false,
      "inputs": [
        {
          "indexed": true,
          "internalType": "uint256",
          "name": "tokenId",
          "type": "uint256"
        },
        {
          "indexed": true,
          "internalType": "address",
          "name": "from",
          "type": "address"
        },
        {
          "indexed": true,
          "internalType": "address",
          "name": "to",
          "type": "address"
        },
        {
          "indexed": false,
          "internalType": "uint256",
          "name": "price",
          "type": "uint256"
        }
      ],
      "name": "TicketResold",
      "type": "event"
    },
    {
      "anonymous": false,
      "inputs": [
        {
          "indexed": true,
          "internalType": "uint256",
          "name": "tokenId",
          "type": "uint256"
        }
      ],
      "name": "TicketUsed",
      "type": "event"
    },
    {
      "anonymous": false,
      "inputs": [
        {
          "indexed": true,
          "internalType": "address",
          "name": "from",
          "type": "address"
        },
        {
          "indexed": true,
          "internalType": "address",
          "name": "to",
          "type": "address"
        },
        {
          "indexed": true,
          "internalType": "uint256",
          "name": "tokenId",
          "type": "uint256"
        }
      ],
      "name": "Transfer",
      "type": "event"
    },
    {
      "inputs": [
        {
          "internalType": "address",
          "name": "to",
          "type": "address"
        },
        {
          "internalType": "uint256",
          "name": "tokenId",
          "type": "uint256"
        }
      ],
      "name": "approve",
      "outputs": [],
      "stateMutability": "nonpayable",
      "type": "function"
    },
    {
      "inputs": [
        {
          "internalType": "address",
          "name": "owner",
          "type": "address"
        }
      ],
      "name": "balanceOf",
      "outputs": [
        {
          "internalType": "uint256",
          "name": "",
          "type": "uint256"
        }
      ],
      "stateMutability": "view",
      "type": "function"
    },
    {
      "inputs": [],
      "name": "eventDate",
      "outputs": [
        {
          "internalType": "uint256",
          "name": "",
          "type": "uint256"
        }
      ],
      "stateMutability": "view",
      "type": "function"
    },
    {
      "inputs": [],
      "name": "eventLocation",
      "outputs": [
        {
          "internalType": "string",
          "name": "",
          "type": "string"
        }
      ],
      "stateMutability": "view",
      "type": "function"
    },
    {
      "inputs": [],
      "name": "eventName",
      "outputs": [
        {
          "internalType": "string",
          "name": "",
          "type": "string"
        }
      ],
      "stateMutability": "view",
      "type": "function"
    },
    {
      "inputs": [
        {
          "internalType": "uint256",
          "name": "tokenId",
          "type": "uint256"
        }
      ],
      "name": "getApproved",
      "outputs": [
        {
          "internalType": "address",
          "name": "",
          "type": "address"
        }
      ],
      "stateMutability": "view",
      "type": "function"
    },
    {
      "inputs": [
        {
          "internalType": "address",
          "name": "owner",
          "type": "address"
        },
        {
          "internalType": "address",
          "name": "operator",
          "type": "address"
        }
      ],
      "name": "isApprovedForAll",
      "outputs": [
        {
          "internalType": "bool",
          "name": "",
          "type": "bool"
        }
      ],
      "stateMutability": "view",
      "type": "function"
    },
    {
      "inputs": [
        {
          "internalType": "uint256",
          "name": "tokenId",
          "type": "uint256"
        },
        {
          "internalType": "address",
          "name": "user",
          "type": "address"
        }
      ],
      "name": "isTicketValid",
      "outputs": [
        {
          "internalType": "bool",
          "name": "",
          "type": "bool"
        }
      ],
      "stateMutability": "view",
      "type": "function"
    },
    {
      "inputs": [
        {
          "internalType": "uint256",
          "name": "tokenId",
          "type": "uint256"
        }
      ],
      "name": "markTicketUsed",
      "outputs": [],
      "stateMutability": "nonpayable",
      "type": "function"
    },
    {
      "inputs": [],
      "name": "maxResalePrice",
      "outputs": [
        {
          "internalType": "uint256",
          "name": "",
          "type": "uint256"
        }
      ],
      "stateMutability": "view",
      "type": "function"
    },
    {
      "inputs": [
        {
          "internalType": "address",
          "name": "to",
          "type": "address"
        },
        {
          "internalType": "string",
          "name": "tokenURI",
          "type": "string"
        }
      ],
      "name": "mintTicket",
      "outputs": [],
      "stateMutability": "payable",
      "type": "function"
    },
    {
      "inputs": [],
      "name": "name",
      "outputs": [
        {
          "internalType": "string",
          "name": "",
          "type": "string"
        }
      ],
      "stateMutability": "view",
      "type": "function"
    },
    {
      "inputs": [],
      "name": "owner",
      "outputs": [
        {
          "internalType": "address",
          "name": "",
          "type": "address"
        }
      ],
      "stateMutability": "view",
      "type": "function"
    },
    {
      "inputs": [
        {
          "internalType": "uint256",
          "name": "tokenId",
          "type": "uint256"
        }
      ],
      "name": "ownerOf",
      "outputs": [
        {
          "internalType": "address",
          "name": "",
          "type": "address"
        }
      ],
      "stateMutability": "view",
      "type": "function"
    },
    {
      "inputs": [],
      "name": "renounceOwnership",
      "outputs": [],
      "stateMutability": "nonpayable",
      "type": "function"
    },
    {
      "inputs": [
        {
          "internalType": "uint256",
          "name": "tokenId",
          "type": "uint256"
        },
        {
          "internalType": "address",
          "name": "to",
          "type": "address"
        }
      ],
      "name": "resellTicket",
      "outputs": [],
      "stateMutability": "payable",
      "type": "function"
    },
    {
      "inputs": [],
      "name": "royaltyPercentage",
      "outputs": [
        {
          "internalType": "uint256",
          "name": "",
          "type": "uint256"
        }
      ],
      "stateMutability": "view",
      "type": "function"
    },
    {
      "inputs": [
        {
          "internalType": "address",
          "name": "from",
          "type": "address"
        },
        {
          "internalType": "address",
          "name": "to",
          "type": "address"
        },
        {
          "internalType": "uint256",
          "name": "tokenId",
          "type": "uint256"
        }
      ],
      "name": "safeTransferFrom",
      "outputs": [],
      "stateMutability": "nonpayable",
      "type": "function"
    },
    {
      "inputs": [
        {
          "internalType": "address",
          "name": "from",
          "type": "address"
        },
        {
          "internalType": "address",
          "name": "to",
          "type": "address"
        },
        {
          "internalType": "uint256",
          "name": "tokenId",
          "type": "uint256"
        },
        {
          "internalType": "bytes",
          "name": "data",
          "type": "bytes"
        }
      ],
      "name": "safeTransferFrom",
      "outputs": [],
      "stateMutability": "nonpayable",
      "type": "function"
    },
    {
      "inputs": [
        {
          "internalType": "address",
          "name": "operator",
          "type": "address"
        },
        {
          "internalType": "bool",
          "name": "approved",
          "type": "bool"
        }
      ],
      "name": "setApprovalForAll",
      "outputs": [],
      "stateMutability": "nonpayable",
      "type": "function"
    },
    {
      "inputs": [
        {
          "internalType": "bytes4",
          "name": "interfaceId",
          "type": "bytes4"
        }
      ],
      "name": "supportsInterface",
      "outputs": [
        {
          "internalType": "bool",
          "name": "",
          "type": "bool"
        }
      ],
      "stateMutability": "view",
      "type": "function"
    },
    {
      "inputs": [],
      "name": "symbol",
      "outputs": [
        {
          "internalType": "string",
          "name": "",
          "type": "string"
        }
      ],
      "stateMutability": "view",
      "type": "function"
    },
    {
      "inputs": [
        {
          "internalType": "uint256",
          "name": "",
          "type": "uint256"
        }
      ],
      "name": "ticketOriginalPrice",
      "outputs": [
        {
          "internalType": "uint256",
          "name": "",
          "type": "uint256"
        }
      ],
      "stateMutability": "view",
      "type": "function"
    },
    {
      "inputs": [],
      "name": "ticketPrice",
      "outputs": [
        {
          "internalType": "uint256",
          "name": "",
          "type": "uint256"
        }
      ],
      "stateMutability": "view",
      "type": "function"
    },
    {
      "inputs": [
        {
          "internalType": "uint256",
          "name": "",
          "type": "uint256"
        }
      ],
      "name": "ticketUsed",
      "outputs": [
        {
          "internalType": "bool",
          "name": "",
          "type": "bool"
        }
      ],
      "stateMutability": "view",
      "type": "function"
    },
    {
      "inputs": [
        {
          "internalType": "uint256",
          "name": "tokenId",
          "type": "uint256"
        }
      ],
      "name": "tokenURI",
      "outputs": [
        {
          "internalType": "string",
          "name": "",
          "type": "string"
        }
      ],
      "stateMutability": "view",
      "type": "function"
    },
    {
      "inputs": [],
      "name": "totalMinted",
      "outputs": [
        {
          "internalType": "uint256",
          "name": "",
          "type": "uint256"
        }
      ],
      "stateMutability": "view",
      "type": "function"
    },
    {
      "inputs": [],
      "name": "totalTickets",
      "outputs": [
        {
          "internalType": "uint256",
          "name": "",
          "type": "uint256"
        }
      ],
      "stateMutability": "view",
      "type": "function"
    },
    {
      "inputs": [
        {
          "internalType": "address",
          "name": "from",
          "type": "address"
        },
        {
          "internalType": "address",
          "name": "to",
          "type": "address"
        },
        {
          "internalType": "uint256",
          "name": "tokenId",
          "type": "uint256"
        }
      ],
      "name": "transferFrom",
      "outputs": [],
      "stateMutability": "nonpayable",
      "type": "function"
    },
    {
      "inputs": [
        {
          "internalType": "address",
          "name": "newOwner",
          "type": "address"
        }
      ],
      "name": "transferOwnership",
      "outputs": [],
      "stateMutability": "nonpayable",
      "type": "function"
    },
    {
      "inputs": [],
      "name": "withdraw",
      "outputs": [],
      "stateMutability": "nonpayable",
      "type": "function"
    }
  ],
  "bytecode": "0x60806040523480156200001157600080fd5b5060405162002161380380620021618339810160408190526200003491620001ea565b338989600062000045838262000363565b50600162000054828262000363565b5050506001600160a01b0381166200008657604051631e4fbdf760e01b81526000600482015260240160405180910390fd5b6200009181620000d3565b506008620000a0888262000363565b506009869055600a620000b4868262000363565b50600b93909355600c91909155600d55600e55506200042f9350505050565b600780546001600160a01b038381166001600160a01b0319831681179093556040519116919082907f8be0079c531659141344cd1fd0a4f28419497f9722a3daafe3b4186f6b6457e090600090a35050565b634e487b7160e01b600052604160045260246000fd5b600082601f8301126200014d57600080fd5b81516001600160401b03808211156200016a576200016a62000125565b604051601f8301601f19908116603f0116810190828211818310171562000195576200019562000125565b81604052838152602092508683858801011115620001b257600080fd5b600091505b83821015620001d65785820183015181830184015290820190620001b7565b600093810190920192909252949350505050565b60008060008060008060008060006101208a8c0312156200020a57600080fd5b89516001600160401b03808211156200022257600080fd5b620002308d838e016200013b565b9a5060208c01519150808211156200024757600080fd5b620002558d838e016200013b565b995060408c01519150808211156200026c57600080fd5b6200027a8d838e016200013b565b985060608c0151975060808c01519150808211156200029857600080fd5b50620002a78c828d016200013b565b95505060a08a0151935060c08a0151925060e08a015191506101008a015190509295985092959850929598565b600181811c90821680620002e957607f821691505b6020821081036200030a57634e487b7160e01b600052602260045260246000fd5b50919050565b601f8211156200035e57600081815260208120601f850160051c81016020861015620003395750805b601f850160051c820191505b818110156200035a5782815560010162000345565b5050505b505050565b81516001600160401b038111156200037f576200037f62000125565b6200039781620003908454620002d4565b8462000310565b602080601f831160018114620003cf5760008415620003b65750858301515b600019600386901b1c1916600185901b1785556200035a565b600085815260208120601f198616915b828110156200040057888601518255948401946001909101908401620003df565b50858210156200041f5787850151600019600388901b60f8161c191681555b5050505050600190811b01905550565b611d22806200043f6000396000f3fe6080604052600436106101d85760003560e01c806370a0823111610102578063a2309ff811610095578063dcc080f311610064578063dcc080f314610506578063dd11247e14610533578063e985e9c514610549578063f2fde38b1461056957600080fd5b8063a2309ff814610491578063b88d4fde146104a6578063b99583f2146104c6578063c87b56dd146104e657600080fd5b80638a71bb2d116100d15780638a71bb2d146104285780638da5cb5b1461043e57806395d89b411461045c578063a22cb4651461047157600080fd5b806370a08231146103cb578063715018a6146103eb5780637fae47cf146104005780638043c9c01461041357600080fd5b806339e9e8eb1161017a5780635388842c116101495780635388842c146103485780636352211e1461035b578063642b5f9b1461037b5780636c27c138146103ab57600080fd5b806339e9e8eb146102e75780633ccfd60b146102fd57806342842e0e146103125780634bfbe5df1461033257600080fd5b8063095ea7b3116101b6578063095ea7b31461026c5780631209b1f61461028e57806323b872dd146102b25780632a6ca755146102d257600080fd5b806301ffc9a7146101dd57806306fdde0314610212578063081812fc14610234575b600080fd5b3480156101e957600080fd5b506101fd6101f8366004611776565b610589565b60405190151581526020015b60405180910390f35b34801561021e57600080fd5b506102276105b4565b60405161020991906117e3565b34801561024057600080fd5b5061025461024f3660046117f6565b610646565b6040516001600160a01b039091168152602001610209565b34801561027857600080fd5b5061028c61028736600461182b565b61066f565b005b34801561029a57600080fd5b506102a4600b5481565b604051908152602001610209565b3480156102be57600080fd5b5061028c6102cd366004611855565b61067e565b3480156102de57600080fd5b5061022761070e565b3480156102f357600080fd5b506102a4600c5481565b34801561030957600080fd5b5061028c61079c565b34801561031e57600080fd5b5061028c61032d366004611855565b6107e0565b34801561033e57600080fd5b506102a460095481565b61028c61035636600461191d565b610800565b34801561036757600080fd5b506102546103763660046117f6565b61094d565b34801561038757600080fd5b506101fd6103963660046117f6565b60106020526000908152604090205460ff1681565b3480156103b757600080fd5b5061028c6103c63660046117f6565b610958565b3480156103d757600080fd5b506102a46103e636600461197f565b6109f8565b3480156103f757600080fd5b5061028c610a40565b61028c61040e36600461199a565b610a54565b34801561041f57600080fd5b50610227610c4b565b34801561043457600080fd5b506102a4600d5481565b34801561044a57600080fd5b506007546001600160a01b0316610254565b34801561046857600080fd5b50610227610c58565b34801561047d57600080fd5b5061028c61048c3660046119c6565b610c67565b34801561049d57600080fd5b50600f546102a4565b3480156104b257600080fd5b5061028c6104c1366004611a02565b610c72565b3480156104d257600080fd5b506101fd6104e136600461199a565b610c8a565b3480156104f257600080fd5b506102276105013660046117f6565b610ccb565b34801561051257600080fd5b506102a46105213660046117f6565b60116020526000908152604090205481565b34801561053f57600080fd5b506102a4600e5481565b34801561055557600080fd5b506101fd610564366004611a7e565b610ddc565b34801561057557600080fd5b5061028c61058436600461197f565b610e0a565b60006001600160e01b03198216632483248360e11b14806105ae57506105ae82610e45565b92915050565b6060600080546105c390611aa8565b80601f01602080910402602001604051908101604052809291908181526020018280546105ef90611aa8565b801561063c5780601f106106115761010080835404028352916020019161063c565b820191906000526020600020905b81548152906001019060200180831161061f57829003601f168201915b5050505050905090565b600061065182610e95565b506000828152600460205260409020546001600160a01b03166105ae565b61067a828233610ece565b5050565b6001600160a01b0382166106ad57604051633250574960e11b8152600060048201526024015b60405180910390fd5b60006106ba838333610edb565b9050836001600160a01b0316816001600160a01b031614610708576040516364283d7b60e01b81526001600160a01b03808616600483015260248201849052821660448201526064016106a4565b50505050565b600a805461071b90611aa8565b80601f016020809104026020016040519081016040528092919081815260200182805461074790611aa8565b80156107945780601f1061076957610100808354040283529160200191610794565b820191906000526020600020905b81548152906001019060200180831161077757829003601f168201915b505050505081565b6107a4610fd4565b6007546040516001600160a01b03909116904780156108fc02916000818181858888f193505050501580156107dd573d6000803e3d6000fd5b50565b6107fb83838360405180602001604052806000815250610c72565b505050565b600e54600f54106108465760405162461bcd60e51b815260206004820152601060248201526f105b1b081d1a58dad95d1cc81cdbdb1960821b60448201526064016106a4565b600b5434101561088f5760405162461bcd60e51b8152602060048201526014602482015273125b9cdd59999a58da595b9d081c185e5b595b9d60621b60448201526064016106a4565b600f805490819060006108a183611af8565b91905055506108b08382611001565b6108ba818361101b565b600b54600082815260116020526040902081905534111561091257600b5433906108fc906108e89034611b11565b6040518115909202916000818181858888f19350505050158015610910573d6000803e3d6000fd5b505b60405181906001600160a01b038516907fe3bc6f5972e89b7adec47f0277204f27cd981570e200dd4d408093535c9e8e6990600090a3505050565b60006105ae82610e95565b610960610fd4565b60008181526010602052604090205460ff16156109b55760405162461bcd60e51b8152602060048201526013602482015272151a58dad95d08185b1c9958591e481d5cd959606a1b60448201526064016106a4565b600081815260106020526040808220805460ff191660011790555182917f1f5d53e38fbc5a40092861e993062e74fb6dc7acef58356c7b55aa1afd8b350191a250565b60006001600160a01b038216610a24576040516322718ad960e21b8152600060048201526024016106a4565b506001600160a01b031660009081526003602052604090205490565b610a48610fd4565b610a52600061106b565b565b33610a5e8361094d565b6001600160a01b031614610aa75760405162461bcd60e51b815260206004820152601060248201526f2737ba103a34b1b5b2ba1037bbb732b960811b60448201526064016106a4565b60008281526010602052604090205460ff1615610afc5760405162461bcd60e51b8152602060048201526013602482015272151a58dad95d08185b1c9958591e481d5cd959606a1b60448201526064016106a4565b600c54341115610b465760405162461bcd60e51b815260206004820152601560248201527450726963652065786365656473206365696c696e6760581b60448201526064016106a4565b6000612710600d5434610b599190611b24565b610b639190611b3b565b90506000610b718234611b11565b9050610b856007546001600160a01b031690565b6001600160a01b03166108fc839081150290604051600060405180830381858888f19350505050158015610bbd573d6000803e3d6000fd5b50604051339082156108fc029083906000818181858888f19350505050158015610beb573d6000803e3d6000fd5b50610bf73384866110bd565b826001600160a01b0316336001600160a01b0316857fd59a36d8310ffb140214be490baf3fe8961f859a17199ec1bf9015c8b734001134604051610c3d91815260200190565b60405180910390a450505050565b6008805461071b90611aa8565b6060600180546105c390611aa8565b61067a33838361116d565b610c7d84848461067e565b610708338585858561120c565b6000816001600160a01b0316610c9f8461094d565b6001600160a01b0316148015610cc4575060008381526010602052604090205460ff16155b9392505050565b6060610cd682610e95565b5060008281526006602052604081208054610cf090611aa8565b80601f0160208091040260200160405190810160405280929190818152602001828054610d1c90611aa8565b8015610d695780601f10610d3e57610100808354040283529160200191610d69565b820191906000526020600020905b815481529060010190602001808311610d4c57829003601f168201915b505050505090506000610d8760408051602081019091526000815290565b90508051600003610d99575092915050565b815115610dcb578082604051602001610db3929190611b5d565b60405160208183030381529060405292505050919050565b610dd484611337565b949350505050565b6001600160a01b03918216600090815260056020908152604080832093909416825291909152205460ff1690565b610e12610fd4565b6001600160a01b038116610e3c57604051631e4fbdf760e01b8152600060048201526024016106a4565b6107dd8161106b565b60006001600160e01b031982166380ac58cd60e01b1480610e7657506001600160e01b03198216635b5e139f60e01b145b806105ae57506301ffc9a760e01b6001600160e01b03198316146105ae565b6000818152600260205260408120546001600160a01b0316806105ae57604051637e27328960e01b8152600481018490526024016106a4565b6107fb83838360016113ab565b6000828152600260205260408120546001600160a01b0390811690831615610f0857610f088184866114b1565b6001600160a01b03811615610f4657610f256000856000806113ab565b6001600160a01b038116600090815260036020526040902080546000190190555b6001600160a01b03851615610f75576001600160a01b0385166000908152600360205260409020805460010190555b60008481526002602052604080822080546001600160a01b0319166001600160a01b0389811691821790925591518793918516917fddf252ad1be2c89b69c2b068fc378daa952ba7f163c4a11628f55a4df523b3ef91a4949350505050565b6007546001600160a01b03163314610a525760405163118cdaa760e01b81523360048201526024016106a4565b61067a828260405180602001604052806000815250611515565b60008281526006602052604090206110338282611bd2565b506040518281527ff8e1a15aba9398e019f0b49df1a4fde98ee17ae345cb5f6b5e2c27f5033e8ce79060200160405180910390a15050565b600780546001600160a01b038381166001600160a01b0319831681179093556040519116919082907f8be0079c531659141344cd1fd0a4f28419497f9722a3daafe3b4186f6b6457e090600090a35050565b6001600160a01b0382166110e757604051633250574960e11b8152600060048201526024016106a4565b60006110f583836000610edb565b90506001600160a01b03811661112157604051637e27328960e01b8152600481018390526024016106a4565b836001600160a01b0316816001600160a01b031614610708576040516364283d7b60e01b81526001600160a01b03808616600483015260248201849052821660448201526064016106a4565b6001600160a01b03821661119f57604051630b61174360e31b81526001600160a01b03831660048201526024016106a4565b6001600160a01b03838116600081815260056020908152604080832094871680845294825291829020805460ff191686151590811790915591519182527f17307eab39ab6107e8899845ad3d59bd9653f200f220920489ca2b5937696c31910160405180910390a3505050565b6001600160a01b0383163b1561133057604051630a85bd0160e11b81526001600160a01b0384169063150b7a029061124e908890889087908790600401611c92565b6020604051808303816000875af1925050508015611289575060408051601f3d908101601f1916820190925261128691810190611ccf565b60015b6112f2573d8080156112b7576040519150601f19603f3d011682016040523d82523d6000602084013e6112bc565b606091505b5080516000036112ea57604051633250574960e11b81526001600160a01b03851660048201526024016106a4565b805160208201fd5b6001600160e01b03198116630a85bd0160e11b1461132e57604051633250574960e11b81526001600160a01b03851660048201526024016106a4565b505b5050505050565b606061134282610e95565b50600061135a60408051602081019091526000815290565b9050600081511161137a5760405180602001604052806000815250610cc4565b806113848461152d565b604051602001611395929190611b5d565b6040516020818303038152906040529392505050565b80806113bf57506001600160a01b03821615155b156114815760006113cf84610e95565b90506001600160a01b038316158015906113fb5750826001600160a01b0316816001600160a01b031614155b801561140e575061140c8184610ddc565b155b156114375760405163a9fbf51f60e01b81526001600160a01b03841660048201526024016106a4565b811561147f5783856001600160a01b0316826001600160a01b03167f8c5be1e5ebec7d5bd14f71427d1e84f3dd0314c0f7b2291e5b200ac8c7c3b92560405160405180910390a45b505b5050600090815260046020526040902080546001600160a01b0319166001600160a01b0392909216919091179055565b6114bc8383836115c0565b6107fb576001600160a01b0383166114ea57604051637e27328960e01b8152600481018290526024016106a4565b60405163177e802f60e01b81526001600160a01b0383166004820152602481018290526044016106a4565b61151f8383611623565b6107fb33600085858561120c565b6060600061153a83611688565b600101905060008167ffffffffffffffff81111561155a5761155a611891565b6040519080825280601f01601f191660200182016040528015611584576020820181803683370190505b5090508181016020015b600019016f181899199a1a9b1b9c1cb0b131b232b360811b600a86061a8153600a850494508461158e57509392505050565b60006001600160a01b03831615801590610dd45750826001600160a01b0316846001600160a01b031614806115fa57506115fa8484610ddc565b80610dd45750506000908152600460205260409020546001600160a01b03908116911614919050565b6001600160a01b03821661164d57604051633250574960e11b8152600060048201526024016106a4565b600061165b83836000610edb565b90506001600160a01b038116156107fb576040516339e3563760e11b8152600060048201526024016106a4565b60008072184f03e93ff9f4daa797ed6e38ed64bf6a1f0160401b83106116c75772184f03e93ff9f4daa797ed6e38ed64bf6a1f0160401b830492506040015b6d04ee2d6d415b85acef810000000083106116f3576d04ee2d6d415b85acef8100000000830492506020015b662386f26fc10000831061171157662386f26fc10000830492506010015b6305f5e1008310611729576305f5e100830492506008015b612710831061173d57612710830492506004015b6064831061174f576064830492506002015b600a83106105ae5760010192915050565b6001600160e01b0319811681146107dd57600080fd5b60006020828403121561178857600080fd5b8135610cc481611760565b60005b838110156117ae578181015183820152602001611796565b50506000910152565b600081518084526117cf816020860160208601611793565b601f01601f19169290920160200192915050565b602081526000610cc460208301846117b7565b60006020828403121561180857600080fd5b5035919050565b80356001600160a01b038116811461182657600080fd5b919050565b6000806040838503121561183e57600080fd5b6118478361180f565b946020939093013593505050565b60008060006060848603121561186a57600080fd5b6118738461180f565b92506118816020850161180f565b9150604084013590509250925092565b634e487b7160e01b600052604160045260246000fd5b600067ffffffffffffffff808411156118c2576118c2611891565b604051601f8501601f19908116603f011681019082821181831017156118ea576118ea611891565b8160405280935085815286868601111561190357600080fd5b858560208301376000602087830101525050509392505050565b6000806040838503121561193057600080fd5b6119398361180f565b9150602083013567ffffffffffffffff81111561195557600080fd5b8301601f8101851361196657600080fd5b611975858235602084016118a7565b9150509250929050565b60006020828403121561199157600080fd5b610cc48261180f565b600080604083850312156119ad57600080fd5b823591506119bd6020840161180f565b90509250929050565b600080604083850312156119d957600080fd5b6119e28361180f565b9150602083013580151581146119f757600080fd5b809150509250929050565b60008060008060808587031215611a1857600080fd5b611a218561180f565b9350611a2f6020860161180f565b925060408501359150606085013567ffffffffffffffff811115611a5257600080fd5b8501601f81018713611a6357600080fd5b611a72878235602084016118a7565b91505092959194509250565b60008060408385031215611a9157600080fd5b611a9a8361180f565b91506119bd6020840161180f565b600181811c90821680611abc57607f821691505b602082108103611adc57634e487b7160e01b600052602260045260246000fd5b50919050565b634e487b7160e01b600052601160045260246000fd5b600060018201611b0a57611b0a611ae2565b5060010190565b818103818111156105ae576105ae611ae2565b80820281158282048414176105ae576105ae611ae2565b600082611b5857634e487b7160e01b600052601260045260246000fd5b500490565b60008351611b6f818460208801611793565b835190830190611b83818360208801611793565b01949350505050565b601f8211156107fb57600081815260208120601f850160051c81016020861015611bb35750805b601f850160051c820191505b8181101561132e57828155600101611bbf565b815167ffffffffffffffff811115611bec57611bec611891565b611c0081611bfa8454611aa8565b84611b8c565b602080601f831160018114611c355760008415611c1d5750858301515b600019600386901b1c1916600185901b17855561132e565b600085815260208120601f198616915b82811015611c6457888601518255948401946001909101908401611c45565b5085821015611c825787850151600019600388901b60f8161c191681555b5050505050600190811b01905550565b6001600160a01b0385811682528416602082015260408101839052608060608201819052600090611cc5908301846117b7565b9695505050505050565b600060208284031215611ce157600080fd5b8151610cc48161176056fea2646970667358221220dfe3c326dad4d956a02ef59d64141a42ccee201c7a766feb7df8adcdc37d43c364736f6c63430008140033",
  "linkReferences": {},
  "deployedLinkReferences": {}
}